:020000040800F2
:10000000F0FF00106139070835B506088927020896
:10001000013A0708013A0708013A07080000000002
:1000200000000000000000000000000039B50608D4
:100030003DB506080000000041B506082DC40108C2
:10004000013A0708013A0708013A0708013A070888
:10005000013A0708013A0708F1B00008F9B00008B2
:1000600001B1000809B1000811B1000825AE00086F
:1000700039AE00084DAE000861AE000875AE00084C
:1000800089AE00089DAE0008013A0708013A07084A
:10009000013A0708013A0708013A070819B10008B0
:1000A00009C6000869C5000819C6000859C5000836
:1000B00091C50008A1C50008B1C50008013A0708AC
:1000C000013A0708013A0708013A0708013A070808
:1000D000013A0708C1BD0108C5BE0108C9BF010832
:1000E00021B10008013A0708112B070829C60008AA
:1000F000E1C5000839C60008D1C50008B1AE000846
:10010000013A0708013A0708C1C50008013A070883
:10011000CDC00108D1C10108013A0708013A07081A
:10012000C5AE0008D9AE0008EDAE000801AF00086A
:1001300015AF0008013A0708013A0708013A070815
:10014000013A0708013A0708013A070845B50608C9
:1001500029AF00083DAF000851AF0008D5C2010823
:10016000013A0708013A0708013A0708013A070867
:10017000013A0708013A0708013A0708013A070857
:08018000013A0708013A0708E3
:10800000074BD0F8E4105B68D0F8F0205B1A9A4276
:10801000B8BFC0F8F030012380F81C310020704751
:10802000001000E0F0B45B4B19785A78914235D1DA
:10803000594D2B79D3B12C7A584B002040F20D3C8E
:10804000B4B19A68998951601668196846F00106BA
:108050001660A1F848C08A8992B242F480728A817F
:108060002A790130824203F11803E9DCF0BC704741
:108070001A68118821F080010904090C118099887F
:10808000D162118889B241F0800111805462998ACD
:108090009689314389B291819C82E1E702EB4200EB
:1080A00003EBC000540000790328C1D8DFE800F0DA
:1080B00039130B02A01803EBC0008468002C5AD0BF
:1080C000013C8460D2E7A01803EBC000856855B17D
:1080D000013D8560CAE7A01803EBC0008568002D4C
:1080E000F6D102250571A01803EBC000037C013B0B
:1080F000DBB20374002B35D1294BC5681C680132F3
:1081000003231A4003718A4204F1FF332B44B3FB6B
:10811000F4F585608CD09C428AD86B1E83601E4D1E
:1081200087E71D4D296891F834C0BCF1000F0BD0D2
:1081300000211C4F084637F8116001304631002EEF
:108140007FF477AF6045F6D11549224403EBC203B3
:10815000096801221A7101F51C520F32B2FBF1F2CB
:108160009A6066E70E4B0C4D1A6802F2E733B3FBD8
:10817000F2F383605DE7013202F003008142587040
:108180003FF456AF00EB400003EBC00302221A712C
:108190009C606BE7C01E00200400001084230020B8
:1081A00088010020241F002010B4037D01681F2BCC
:1081B00009D94C68203B202202FA03F31C4215D156
:1081C0005DF8044B70470C68202202FA03F31C424E
:1081D000F6D00D4A4068002482F8844502685DF8B4
:1081E000044B22F0010202608B607047064A40682F
:1081F000002482F8844502685DF8044B22F00102F5
:108200000260CB60704700BFC01E0020704700BFF7
:108210000A4890F8401081B101EB4101002310B4ED
:10822000490048301C4650F82320063302B1146040
:108230008B42F8D15DF8044B704770470400001082
:108240000A4890F8401081B101EB4101002310B4BD
:10825000490048301C4650F82320063302B1146010
:108260009942F8D15DF8044B704770470400001044
:1082700001207047034B00EB400003EBC00090F877
:108280005900704704000010204890F84030002B3F
:108290003BD000222DE9F04300F148031C4D1D4E58
:1082A0004FF0500E4FF02C0C144607E053F8181BFB
:1082B0000C6090F840100132914224DD197C0029B5
:1082C000F4D05F684FEA9728A8F58018B8F1520FEC
:1082D0004FF0FE0198BF16F80810EFF311888EF3E7
:1082E0001288D7F824900CFB015109F10109C1F85B
:1082F000B095B98A89B241F001015FFA88F8B98274
:1083000088F31188D2E7BDE8F083704704000010BD
:10831000C01E0020F452070807EE900AB8EE670A64
:10832000704700BFBCEEC00A10EE103A98B270471A
:10833000037D1F2B08D90268203B5168202202FAD6
:1083400003F3194214D1704701682022096802FA28
:1083500003F31942F7D00D4A41684FF0000C82F840
:10836000F0C70A68006822F001020A608360704763
:10837000064A41684FF0000C82F8F0C70A680068AE
:1083800022F001020A60C360704700BFC01E0020D7
:10839000122301480B8070478C0100200423014800
:1083A0000B807047A00100202048D0F8103AD0F888
:1083B000182A30B59B184FF01A040C8001D11C48C4
:1083C00030BD1B4AD0F8141A4FF0000E1046754607
:1083D000B3F1204F4FEA137C0CF130040EF1020E82
:1083E0002ABF0CF1370C847080F802C0BEF1100F68
:1083F000C5704FEA031300F10200E9D100200446E2
:10840000B1F1204F4FEA117303F1300C00F102007B
:108410002ABF373382F812C093740828D4744FEA05
:10842000011102F10202EBD1014830BD0070FF1FC3
:10843000A401002082B01F4B002201920193019BF6
:108440001D4A04330193019B1968936803F00C03E0
:10845000042B07D0082B0AD0184B194AC3F8F4276D
:1084600002B07047154BC3F8F41702B07047536859
:10847000506813F4800F00F03F00536813D1C3F32A
:1084800088130F49B1FBF0F101FB03F30A4A0B49D2
:108490005268C2F3014201325200B3FBF2F3C1F859
:1084A000F43702B07047C3F38813B1FBF0F101FB5E
:1084B00003F3EBE75028004000380240C01E0020C4
:1084C0000024F4004FF40063838170474FF400638D
:1084D0008381704701207047012070470120704759
:1084E0000E4B93F8FD2793F8FC17120142EA013274
:1084F00093F8FE1742EA1112C3F8F82793F8002800
:1085000093F8FF17120142EA013293F8011842EA88
:108510001112C3F804280120704700BFC01E0020BC
:108520002DE9F047DFF87C81D8F80458B8F808281E
:10853000B8F80E98C2EB25135200C2EBE502B8F969
:108540000A586A4303FB03F5B8F90C382D135D4351
:10855000AD1305EBE225B8F91238C8F820580E46DD
:10856000A5F5FA31074681FB010C4FEAE37E03FBD8
:108570000CF200FB0E22A3FB003E9644B8F9102833
:1085800082FB01421B0A120343EA0E6342EA1452C1
:1085900024031B1942EB2E2202F50042A3FB093EE5
:1085A00009FB02EE4FEAEE734FEA6E0253EA6E0EDB
:1085B0004FF000046BD0B8F918984FEAE97E09FB38
:1085C0000CFC00FB0ECCA9FB00908444B8F9160803
:1085D00080FB01E148044FEA4E4111EB0909D8F84C
:1085E000F81740EADE304CEB0000C1F5801C0CF0BF
:1085F000004AB8F9141814EB09044AEA5C0A4FEA75
:10860000CC7C00EBC10140F63549BCEB04006AEBC1
:10861000010AA0FB090109FB0A116AF065FFB8F91C
:108620001E484FEA613E430B43EAC14304FB0EF28E
:108630004FEAE47C03FB0C2CA4FB0342624404FBE2
:108640000EFE03FB02EEA4FB0343B8F91C289E4474
:10865000640E44EACE1414EB000C02FB01F34FEA63
:10866000E274814641EB6E6EA2FB092904FB0031E6
:108670004944D40C44EA41341CEB0404B8F91A38D8
:108680004EEBE141240A44EA016404EB03140FB108
:10869000240A3C6026B105EB850580352D12356036
:1086A000BDE8F087C01E002008B503681A78022ACA
:1086B00001D0002008BD1B6A002BFAD1034A062313
:1086C000802111F083FF012008BD00BFE4260020B7
:1086D0004D4BDFED4E6A93F8251893F8240893F874
:1086E000262893F827C8090201EB004193F82808CF
:1086F0000A440002090293F8291848BF02F17F4298
:1087000000EB0C40014407EE902A0002B3F9382830
:1087100093F8500848BF01F17F4107EE101A03EEAD
:10872000902AB3F93A28B3F9441805EE902AF8EEE6
:10873000E77AD3F83028B8EEC77A67EEA67A27EE44
:10874000267A06EE902AB3F93C2805EE102AD3F8D3
:10875000342806EE102AB3F93E2804EE902AB3F925
:10876000402804EE102A1128F8EEE66AF8EEE33A03
:10877000B8EEC66AF8EEE55AB8EEC55AF8EEE44A25
:10878000B8EEC44AB3F9422824D0A7EE845AE7EEE3
:10879000A45AA5EE276AE7EE236AA5EE876AE7EEFC
:1087A000866AB3F92E28B3F92C3807EE902A06EE24
:1087B000103AF8EEE77AB8EEC66A27EE877AF6EE58
:1087C000007AA6EE277A124B0120C3ED076A83EDEB
:1087D000087A704703EE101AF8EEC32A03EE102A47
:1087E000A7EEA24AB8EEC33AA4EE275AE7EE834AB0
:1087F000A5EE276AE4EEA75AE7EE236AA5EE876A9C
:10880000E6EE276ACDE700BFC01E002008218436AF
:10881000EC26002030B10A4BD3ED077AFDEEE77A63
:10882000C0ED007A51B1064B9FED067AD3ED087A80
:1088300067EE877AFDEEE77AC1ED007A704700BFF8
:10884000EC2600200000C84201207047012070473C
:108850000120704701207047024B002083F8510827
:10886000704700BFC01E0020704700BF38B590F8A9
:108870002830012B044604D0407F40B100236377A9
:1088800038BD406A03681A7B92B9637F0BB9012037
:1088900038BD0A4D0A49022305F6540212F08CF83D
:1088A00095F8553803F0010383F001006377E7E79B
:1088B0001B6A002BE9D0002038BD00BFC01E00207D
:1088C000C00100202DE9F0410446154E90F8280023
:1088D000637F144F06F65408012805D00BB100231E
:1088E00063770120BDE8F081606A05682A7B82B960
:1088F000002BF6D002234246394612F05DF896F876
:10890000553803F001036377002BEAD094F8280070
:10891000E2E72A6A002AE8D1002BE2D0EAE700BFAA
:10892000C01E0020C00100200123437700207047B3
:10893000D0E90B2108B583690B4483610AB108466D
:108940009047002008BD00BF436A1B681B6A5B6834
:108950005B78024613F0010008BF5077704700BFF4
:1089600070B5224A224C234B94B00546CDE9004213
:10897000214A0992A4F108020A922A7F0493201D39
:108980000023CDE905039A42CDE90E330B931093F2
:10899000139314BF0520042011936B6A0C900220DE
:1089A0000122029018688DF80C200E4607928DF86F
:1089B00020208DF834208DF8482069F043F92B7F72
:1089C00093B1330E04F8073C063C320C330A227094
:1089D0006370A670686A694611F04AFE6B6A18688F
:1089E00069F030F914B070BD073CEEE7182700209D
:1089F000CC010020498900082989000810B50446E7
:108A000094B05022064968466CF0ACFB606A694637
:108A100011F02EFE636A186869F014F914B010BDE5
:108A200048530708C2628161704700BF2DE9F041D9
:108A30000446406A00681E460F46904669F002F9F7
:108A4000237F002B40D02B4DA0690523C5F884302F
:108A5000030E85F84D3005F14E039870020C000AA4
:108A600058701A703B68C5F890300020D8F8003074
:108A7000C5F89830012E2363C5F8A8002CD0022E2B
:108A800020D1D8F80420C5F8A000796885F89C00AA
:108A9000C5F8A41013441849C5F8AC20012023637D
:108AA00085F8B000C5F8B410144B617F606A03F11B
:108AB0001402002914BF1946114611F0D9FDE36ACA
:108AC00093B1206BBDE8F0810A4DA0690423C5F87D
:108AD000843005F14D03C0E7074B85F89C60C5E97C
:108AE0002830C5F8AC00DFE7636A186869F0AAF8B7
:108AF000E7E700BF8801002031890008DC01002081
:108B0000704700BF00B583B081610192049A009361
:108B1000C26201236A4601A9FFF788FF03B05DF82E
:108B200004FB00BF04307047C2628161704700BF20
:108B3000436A1B681B6A5B689B78024613F001005E
:108B400008BF5077704700BF01234377002070476C
:108B5000D0E90B2108B583690B4483610AB108464B
:108B60009047002008BD00BF704700BF0430704729
:108B700010B4094CD4F85C084FF0340C0CFB00F036
:108B800004EB000C04F506642044DCF86048A4699A
:108B9000A4465DF8044B6047C01E0020064BD3F886
:108BA0005C28342101FB02F203F5066013441044F3
:108BB000D3F86038DB691847C01E002004307047C6
:108BC0000D4B93F8CC28D3F8C8180244D2B283F8DE
:108BD000CC2893F8CC2808441206C3F8C80805D559
:108BE00093F8CC2882F0800283F8CC28034B012232
:108BF00083F8CC20704700BFC01E002088010020F1
:108C00002DE9F047144FD7F8D058ED0A1ED00026B2
:108C1000B04607F60819D7F8D4381048D3F828A07A
:108C2000C7F80089AC19641010234A46E102D04706
:108C30000F280BDD0A4B03F1100C53F8041B013114
:108C400007D16345F9D12546B542E4DCE802BDE829
:108C5000F087661CF8E700BFC01E002094270020A4
:108C6000C82700201C4BD3F81819D3F81C298A1ADE
:108C7000322A16D8D3F830298A4200D37047D3F865
:108C8000242922B31068928810B4446932312242F8
:108C900018BF42835DF8044B08BF0283C3F8301944
:108CA000704793F82029D3F8241902F0010219B172
:108CB00032B90A68898811830022C3F830297047C5
:108CC0000A68898851830022C3F8302970473231FD
:108CD000C3F83019704700BFC01E0020094A92F83F
:108CE0002039D2F8242903F001031AB123B91368FB
:108CF00092881A8300207047136892885A83002054
:108D0000704700BFC01E00204FF40070034B10607E
:108D1000D3F840390B600020704700BFC01E002010
:108D200000207047012070470120704700207047E5
:108D300010B51C6994420DD396468A188C4694420D
:108D4000996938BFA4EB0E0C71446246BDE810402F
:108D50006CF008BA10BD00BF30B4194B00209C7BEA
:108D600014B11D688D4206D001300B2803F11003A9
:108D7000F5D130BC70479AB1124B03EB40218A42C7
:108D800019D0114B93F8E4278AB1104B01225A7085
:108D900000F5B17003EB00100123837130BC704704
:108DA0000A4B00F5B17003EB00108271E1E701227C
:108DB00083F8E427E9E7022CE3D1183BE8E700BF9A
:108DC000FC5B0020FC450020E4550020E445002029
:108DD00030B41D4C002384F8D03604F5C36004E0A1
:108DE00001330B2B00F1100015D005688D42F7D12F
:108DF00090F80EC0BCF1030FF2D1C2B1134901EBE0
:108E00004320824209D1A1F1180203F5B17302EBAC
:108E1000031301229A7130BC704794F8E42712B909
:108E2000012284F8E4270A4A01215170EDE708493C
:108E3000D4F8CC2603F5B17301EB031301320421FE
:108E40009971C4F8CC26E6E7E4550020FC450020E3
:108E5000E4450020A8B183681BB10E4B07229A702D
:108E600070470C4A1178D36003294FF004000CBFFF
:108E700080214FF48071C2E9011113611375907064
:108E80007047044A02F580510123537081F8E4379A
:108E9000704700BFE44500200C4AF8B513685569D7
:108EA0002B4003EA000555617DB1094F0126B5FA53
:108EB00085F4C4F11F0407EB840306FA04F4D3F825
:108EC000700903689847A543F1D1F8BD003C014003
:108ED000C01E0020038A2DE9F047B0F80C901FFA5D
:108EE00089F919EA03092BD005460E464FF00047D1
:108EF0004FF00008B9FA89F327FA03F2D24391B28E
:108F00001B3B298209EA0209042B16D8DFE803F08B
:108F1000352C231A0300B36A002B37D003F1FF3A34
:108F20001FFA8AFAC6F82880746A34B1236820468A
:108F3000514698476468002CF8D1B9F1000FD9D197
:108F4000BDE8F0877068696B036889B29847B9F12A
:108F5000000FCFD1F4E7B068A96B036889B29847D6
:108F6000B9F1000FC6D1EBE7F068E96B036889B28D
:108F70009847B9F1000FBDD1E2E73069296C036869
:108F800089B29847B9F1000FB4D1D9E7E96A1FFA5D
:108F900081FAC9E7F0B511F0010583B00AD190F864
:108FA0002860012E044607D0C368B3F1807F01D941
:108FB0000123237703B0F0BD0A4B476AD3F8B00909
:108FC00011F0F2FEE368B880B3F1807FF2D9B721E7
:108FD0008DF80410267733462A46384601A911F049
:108FE000EBFCE7E7C01E00202DE9F0430446406A91
:108FF000344D006895B00E469146984668F022FEC2
:10900000314B0193314B049305F1D8030093217F39
:109010000223029305F1D002012300278DF80C30C2
:1090200005920697002936D08DF834308DF84830F7
:10903000CDE90977330ECDE90E77CDE9107785F8C4
:10904000D1300523CDF82C908DF82070CDF83080EC
:109050001397D2350793330C1D4F2B70330A6B7067
:10906000AE70D7F8B009656A11F09EFE637FA880E4
:1090700033BB05A9284611F0FBFA636A186868F04B
:10908000E1FDD7F8B80911F08FFE636A9880404679
:1090900015B0BDE8F0838DF834308DF848300423E6
:1090A000CDE90911CDE90E11CDE91011CDF82C90C3
:1090B0008DF82010CDF830801391D1350793CAE791
:1090C0006946D7E7880100207428002049890008F4
:1090D000C01E00202DE9F04F037D02681F2B83B0D6
:1090E000044609D95068A3F120052021A940014276
:1090F00007D103B0BDE8F08F1068202199400142EC
:10910000F7D05049504D4968C5F80811297AA76928
:109110004E4E19BB8C2101FB0761C86ED1F8E4E00B
:10912000D0F800C0DEF80000B1F8708020F0010037
:10913000CEF80000BCF80C1089B221EA0801ACF8A6
:109140000C1095F8101101BB1F2B6DD9A3F1200154
:1091500020238B40D36003B0BDE8F08F8C2101FB4E
:109160000761C96ED1F810C00868DCF8001021F062
:109170000101CCF80010818921F480710904090CE7
:10918000818195F810110029DED04FF08C0808FB82
:1091900007F806EB08032E49D3F8E4A0DA6E019332
:1091A000504608F11809D2F800B089445AF056FC2C
:1091B000019BD5F814212649012083F8B800002A24
:1091C00039D0BBF800309BB243F08003ABF80030DD
:1091D00008F174084FF0FF334144CBF82C30584667
:1091E0005AF074FD8C2303FB076600234946C6F83A
:1091F000883050465AF0C8FCD6F8E43016225A603F
:109200001A6842F001021A60F26EB6F87030126805
:1092100091890B439BB293810A49237D4968226857
:10922000C5F80C111F2B91D8202101FA03F393608C
:1092300003B0BDE8F08F13F043F90549C5F81401F8
:10924000BFE700BF001000E004000010C01E0020B7
:10925000241F002010B5094C00EB400004EBC004B3
:1092600094ED147AD4ED157AE7EE007AB0EE670A41
:109270006BF000FAA36C186010BD00BF0400001072
:109280000A4608B5054920B905485AF045FE034885
:1092900008BD04485AF040FE004808BD7C28002064
:1092A00050E5070878E5070810B5044C04480A465D
:1092B00021465AF031FE204610BD00BF7C28002018
:1092C000A0E5070810B5044C04480A4621465AF0A8
:1092D00023FE204610BD00BF7C280020B4E507080F
:1092E00010B5044C04480A4621465AF015FE2046A3
:1092F00010BD00BF7C280020C0E5070838B58022DB
:109300006B21044611F0E8FB642018F0B9F907223C
:109310006821204611F0E0FB642018F0B1F9F52136
:10932000204611F093FC0546012017F067FF682DD9
:1093300011D18C21204611F089FC182804D814285A
:1093400034BF0020032038BD5438C0B2072834BFD2
:1093500003200020F7E70020F5E738B500224E2172
:10936000054611F0B9FB1524962018F089F9F5216E
:10937000284611F06BFC422807D0472807D0013C53
:1093800014F0FF04F0D1204638BD0C24FBE70D2477
:10939000F9E700BF10B590F82830012B044603D040
:1093A00000230120637710BD406A03681A7B3AB935
:1093B00068F04CFC00F0010383F001006377F2E7F2
:1093C0001B6A002BF4D0002010BD00BF38B5114D32
:1093D000044694F82830012B05D00023637700233E
:1093E0002362012038BD606A03681A7B72B968F095
:1093F0002DFC00F0010060770028F0D0D5F8183976
:10940000226A9B1A002BE4DB002038BD1B6A002B6C
:10941000EDD0F3E7C01E002010B5FF22044690F8FF
:109420002810406A69F052FB0E4BD3F8183903F547
:10943000FA7323622046FFF7C9FF94F82830012B06
:1094400000D010BD606A0022A02169F019FB94F8D9
:109450002830012BF5D1606A1822BDE81040B021F8
:1094600069F00EBBC01E0020CB0700D5704710B5B9
:109470000446FFF7D1FF94F82830012B00D010BD2F
:10948000024811F091FC636A988010BD00E1F50577
:1094900038B504460D46FFF799FF062294F82810C8
:1094A000606A69F013FB94F82830012293426277D6
:1094B00005D0074BD3F818390F33236238BDE28843
:1094C000606AB5FBF2F2D82169F0B6FAF1E700BFA5
:1094D000C01E00202DE9F843838853B3DFF858807D
:1094E00004460025012707E0D8F81839A28801357D
:1094F0000F33AA4223621CD92046268AB4F806906C
:10950000FFF764FF94F82810606A062269F0DEFA1B
:1095100094F828306777012BE6D109FB06F6E2883C
:10952000606A05FB06F6D821B6FBF2F269F084FA10
:10953000DAE7BDE8F88300BFC01E002070B5114D0A
:1095400095F8BB3A03B970BD0F4BC288D5F8BC6A19
:10955000B6FBF2F60446C3F8DC60FFF737FF94F879
:109560002830012B07D0D5F81839002202332362A6
:1095700085F8BB2A70BD606A3246102169F05CFA3A
:10958000F1E700BFC01E0020880100202DE9F04750
:10959000DFF814A1B0F806C0B1FBFCF51F46DAF8FD
:1095A000DC30AB4290B006460C46904622D1DFF844
:1095B000FC9096F828300CFB1544ACEB040CBC4531
:1095C00034BF1FFA8CF5BDB2012B3ED0D9F8183943
:1095D000023330463362FFF7F9FE38B196F828308F
:1095E000012B25D0284610B0BDE8F087002010B030
:1095F000BDE8F087FFF7EAFE0028F7D096F828309C
:109600004FF0FF32012BCAF8DC2046D0DFF89C90E7
:10961000D9F81839023330463362FFF7D7FE0028F5
:10962000E4D0B6F806C0CAF8DC50B4FBFCF5C0E7DD
:10963000706A68F00BFBC0F3011001380228D1D822
:109640003046FFF7E9FE2846CDE78DF80240240AB0
:109650008DF80140746A8DF824308DF8383003237A
:1096600000228DF800302046042301A9CDE90787A8
:10967000CDE90522CDE90A22CDE90C228DF803209F
:1096800002928DF810200F92CDF804D0039310F0C1
:10969000EFFF206868F0D6FA98E7706A2A4613212F
:1096A00069F0CAF9B2E700BF88010020C01E00209F
:1096B0002DE9F843436A3E4F044618680E4690462B
:1096C00068F0C0FA97F8BB3A002B3ED0E288D7F892
:1096D000C03A384DB3FBF2F102FB113385F8823109
:1096E0001B0A85F8813105F1E0093368C5F8883136
:1096F000D8F80030304A606AC5F8903149460023F6
:10970000C5F8983111F0B8FBD7F8C03AD8F8002066
:10971000E18813440120B3FBF1F601FB1636C7F8CC
:10972000C03A87F8BB0A1EB3244BC5F89831637F53
:109730000BB909F11409606A2263494610F098FFD9
:10974000E36A6BB3206BBDE8F883A369E288194D27
:10975000C7F8C03AC7F8BC3AB3FBF2F102FB1133C9
:1097600085F886311B0A85F8853105F59879BCE7BF
:10977000134AD7F8BC3AB3FBF1F1C5F8DC1049BA8B
:10978000A5F8B211606AA2F12C0111F075FBD7F8AF
:10979000C03AD8F8002087F8BB6AC7F8BC3AC6E7D9
:1097A000636A186868F04EFA206BBDE8F88300BF62
:1097B000C01E00208801002010030020518B0008EB
:1097C0003C03002033B910B51C46C36A20469847B5
:1097D000204610BD6CE700BF00B583B081610192E7
:1097E000049AC26201A96A460093FFF761FF03B0C1
:1097F0005DF804FB2DE9F047089F884615460021D7
:10980000202204461E466BF010FD4FB13B68E381F9
:109810001B0C23827B687A89E3821B0C6282238380
:10982000404669F09DF9EB0619D4431EB8B108EB28
:10983000000701E0013B12D317F801CDBCF12E0F58
:10984000F8D1C01A421E032AA8BF0322082B03F135
:10985000010AA8BF08239146C2441A4606E0082818
:109860000246C246A8BF08224FF000094FF020333D
:1098700041462360636004F1080720466BF072FCE8
:10988000174B23815146BB704A4638466BF06AFC41
:10989000611EE31D11F801CFACF1610EBEF1190F8D
:1098A0009CBFACF1200C81F800C08B42F2D138464D
:1098B00004F10B0110F8013BA3F16102192A9CBFCE
:1098C000203B00F8013C8842F4D118232373330C69
:1098D000A382E572099B6683E361BDE8F08700BF60
:1098E000202020002DE9F04FDFF88894D9F81809DE
:1098F000C9F81C0987B0002B00F0DA8001F5FE786A
:109900001344DFF874B40393164601F12007C246EE
:1099100021E0002E64D0D9F84C39B34200F0CC805D
:10992000D9F84839B34200F0FF80D9F85039D9F856
:109930005419B3424BD8B14200F29981711A2046B2
:1099400064F062F9039B01369E4207F500770AF541
:10995000007A00F0AD80D9F85859B542A7F120043B
:10996000D7D8751BD9F8688905F00702EB0804926F
:10997000D8F830200233934203D3D8F838209342EA
:109980000BD941461846059364F00EF9059B8046B5
:10999000002800F08C81C9F8680998F80420002A92
:1099A00040F03481D8F82850002D00F07981D8F8A3
:1099B00030209B1A049A02EBC303D8F80C202046EF
:1099C00002EB43224FF400714346A847BAE7B14285
:1099D000B4D920464FF4007200216BF026FCB1E7A9
:1099E0004FF40072314620466BF01FFC802387F84D
:1099F0009E310C2387F8A231D9F84839D44AD9F8D6
:109A00004019C4F8C6319342C4F8CA1100F3348136
:109A1000D04AD14C82FB03021A44D817C0EB621221
:109A200084FB0254CD4D85FB03C5C0EB2530C2EB52
:109A3000821587F8A1015B1B801020F03F000133E5
:109A40000343144487F8A031D317C3EBE414224432
:109A5000BF4B87F89F214A1E9A4200F31981BD4BE4
:109A6000BD4883FB02311144D317C3EB611180FB66
:109A70000140BA4C84FB0254C3EB2433C1EB811484
:109A800087F8A531121B9B1023F03F0301321343CB
:109A9000084487F8A431CB17C3EBE010014487F8E2
:109AA000A311552387F8DE31AA2387F8DF3149E770
:109AB000002007B0BDE8F08F4FF0FF3384F8EC31A1
:109AC00084F8ED3184F8EE3184F8EF31D9F860395B
:109AD000C4F8E8315223237063706123A37084F8C3
:109AE000E73141230025E37084F8E631722384F8DE
:109AF000E43184F8E5314FF4F0722946A7F11C00F7
:109B00006BF093FB5523C7F8D051C7F8D451C7F871
:109B1000D85184F8FE316FF0550384F8FC5184F875
:109B2000FD5184F8FF310DE700214FF4007220460B
:109B30006BF07BFB8A4A03CA47F81D0CEB2007F841
:109B4000200C582007F81F0C902047F8191C07F824
:109B50001E0C002302220821F820E372227307F86A
:109B6000131CA273E37307F8102C07F80B0CD9F839
:109B7000480984F82C20D9F840296376121A226209
:109B8000D9F85009D9F85429E376121A3F202076E3
:109B90004FF0FF30A0763E20207701206377A37737
:109BA000E37784F82D3084F82E3084F82F30626209
:109BB00084F8300084F8313087F82610802187F847
:109BC0002010292187F82210942187F823100E21D4
:109BD00087F824100D21634A87F82510552187F84E
:109BE000DE11AA2187F8DF1103CA5F4BC7F82700EF
:109BF000C7F82B1003CB1388A7F82F309378C7F83A
:109C00003200C7F8361087F831309BE64FF4007207
:109C1000002120466BF009FB049B002B4ED1D8F8A5
:109C20004030002B00F0AA80049AD8F830304F4919
:109C3000CDE9002220461122FFF7DCFDD8F84030A4
:109C40001A6C002A00F0AD80049A1B6BCDE900224B
:109C5000474911223846FFF7CDFDD8F8448007F177
:109C600020044FF4E075B8F1000F3FD16AE6F11A15
:109C7000204663F0C9FF65E6FF2387F89F3187F828
:109C8000A13187F8A031324B4A1E9A427FF7E7AEE6
:109C9000FF2387F8A33187F8A53187F8A43100E7BF
:109CA000294620464FF400726BF0BFFA4AE6A7F14E
:109CB000240343F804BF9A45FBD143E6D8F840306B
:109CC000049AD8F84480002B0CBF01230223C3EB75
:109CD00002154346002B3FF435AE013D9B6CF9D194
:109CE00098464FF40075002B3FF42CAE25442034E9
:109CF000234620354446049698460EE05CF81C1B2B
:109D0000236BCDF800C000260196FFF773FDA46C0D
:109D100008F12008CCB1A84517D02379A44604F156
:109D20001C0E1122A8F12000002BE7D162792669D0
:109D3000236B216842F02102CDE900E6FFF75AFDCE
:109D4000A46C08F12008002CE5D1049EFAE500BFC0
:109D5000FF03FB0083200882818080809755454166
:109D6000D8E50708E4E50708F0E50708D0E50708A7
:109D7000D4E50708C01E0020DEADBEEF049BD9F875
:109D80004419CDE9003320460822FFF733FDD8F807
:109D90004480B8F1000F3FF4D5AD3C464FF4F07568
:109DA000A4E7049BCDE9003352E7024A0623F721DA
:109DB00010F0E8BCBC26002010B50F4C94F804321B
:109DC00053B10E4A062303210C3010F0DBFC10B116
:109DD000002084F8040210BD094BB3F8C42A52BA1B
:109DE0000A80B3F8C62A52BA8A80B3F8C83A5BBA76
:109DF0004B800120EDE700BF88010020842900206E
:109E0000C01E002070B51F4D95F8CA3A012B28D00E
:109E100095F8CB3A13F0010600F10C000CD00623A4
:109E200005F6CC22002110F0ADFC08B9002070BD71
:109E3000012385F8CA3AF9E713F004044FF001034F
:109E400009D005F6D122052110F09CFC0028EDD0A8
:109E500085F8CB6AEAE705F6CB22062110F092FCE2
:109E6000E4E7B5F8CC2A0A80B5F8CE2A4A80B5F8DE
:109E7000D02A8A80002285F8CA2A85F8CB2A18467B
:109E8000D5E700BFC01E002058B183884FF00042C4
:109E9000B3FA83F332FA03F303D002490A68134397
:109EA0000B607047003C014090F8DB30052B03D875
:109EB00090F81E31032B01D00020704790F8233119
:109EC00003F0FB03022B0CBF002007207047084B58
:109ED00010B5D3F8D43A18440C46807D11F00AFA34
:109EE00018B1828803680CB11A8310BD5A83FCE74D
:109EF000C01E002010B42A492A4A0B797BB3D2F83D
:109F0000C444A04239D0012B29D0D2F8DC44844289
:109F100039D0022B23D0D2F8F444A04235D0032B01
:109F20001DD0D2F80C45A04231D0042B17D0D2F866
:109F30002445A0422DD0052B11D0D2F83C45A0429B
:109F400029D0062B0BD0D2F85445A04225D0072BA0
:109F500005D0D2F86C45844208BF07230ED003F128
:109F6000010C81F804C003EB430102EBC1025DF870
:109F7000044BC2F8C404184670470023DBB21846ED
:109F80005DF8044B70470123F8E70223F6E703234B
:109F9000F4E70423F2E70523F0E70623EEE700BF2A
:109FA00004000010C01E002038B5414C8C2303FB78
:109FB000004393F8733003B938BD94F800C0637858
:109FC0009C450ED003EB430204EBC20292F804E07E
:109FD0000EF1FF35012D4FEA430246D9BEF1030FC2
:109FE0003ED08C2202FB0042A2F86410EFF31181F4
:109FF000902383F31288B2F8645092F8663043EAF3
:10A0000045030025C9B29BB282F8665081F31188DE
:10A0100028491A0991F8105182EA13225A4005B1D1
:10A02000D2431B019BB202F00F021A430B7A53BBBF
:10A030008C2303FB0044D1F81831D4F8EC00012143
:10A040009847D4F8E810B4F870508A8AD4F8E4300D
:10A050002A438A8258601A6842F001021A6038BDA9
:10A060005D1C05F003056545BBD0134404EBC30339
:10A070000344597C0029B4D08C2303FB0043012204
:10A0800083F86620ADE78C2303FB0044D1F8185118
:10A09000E36ED4F8E8105B79086903F0FC03184418
:10A0A0000421A847D4F8E8308000988138BD00BF6B
:10A0B000C01E00200400001043680B4A23F04073C8
:10A0C00023F4807343F48073436083681A4042F042
:10A0D00002028260C36A0139CAB223F4700141EA04
:10A0E0000251C162704700BFFDF7FFC0704700BF5B
:10A0F00010B404698269E468416814604024D46043
:10A10000446900230C31C2E90433C2E90633C2E9D1
:10A110000833C2E90A33C2E90C3393609363516098
:10A1200084B1C269E0689363C2E90233C2E90433CF
:10A13000C2E90633C2E90833C2E90A33C2E90C3383
:10A14000C2E900015DF8044B704700BF436800227C
:10A150001A60037D1F2B08D9203B2022016802FAD8
:10A1600003F343F01803CB6070472022016802FA22
:10A1700003F343F018038B60704700BF0268136A53
:10A1800011B1D96901B3143330B49C681D68916969
:10A19000DDB14FF4806088618D60104640690C61CC
:10A1A00080B15968D369D9B10A464FF480619A6089
:10A1B0009961224312F0010F14BF00224FF40052A4
:10A1C0001A621C6130BC704770478D61064D4FF0BC
:10A1D000FF0C85F805C205F2052500688D60DDE7F6
:10A1E000024A9A609961E4E78801002098290020DA
:10A1F0000168F8B5D1E9042304465568002B49D01D
:10A200009861107D5E681F2831D81768202202FAF5
:10A2100000F040F01800B8601A7D1F2A32D9186883
:10A22000203A202303FA02F242F01802C26000230F
:10A230002B6033603368896943F01003336028462C
:10A2400059F0A2FC23683046D96959F09DFC2B686F
:10A25000226843F001032B603368526843F0010326
:10A26000336093889BB243F003039380F8BD176873
:10A270002038202202FA00F040F01800F8601A7D21
:10A280001F2ACCD81868202303FA02F242F01802E1
:10A290008260CCE7137D90611F2B1CD810682022B0
:10A2A00002FA03F343F01803836000232B602B684A
:10A2B000896943F010032B60284659F065FC2B6830
:10A2C000226843F0010352682B6093889BB243F0ED
:10A2D00002039380F8BD1068203B202202FA03F3AA
:10A2E00043F01803C360E0E72DE9F0417F4D804E55
:10A2F00007463C6897F888806368B888012284F82C
:10A3000024201A8822F040021204120C1A8022899A
:10A31000824223D0198821F038010904AB424FEA68
:10A32000114100F0BF80734A934200F0BB800246A7
:10A33000B2F5807FA8BF4FF48072022AB8BF022214
:10A34000002A92FAA2F2B2FA82F208BF4FF0FF326C
:10A35000013A41EAC20292B21A802081397BA27A84
:10A360008A420CD01A8822F003021204120C1A80BE
:10A370001A8892B2002900F092801A80A1721A887D
:10A3800092B242F040021A80226A9168002900F0DD
:10A39000A3804FF0000C1432E64652F8100C8E44A5
:10A3A00000EA060120B1B1F1805F23D0616909B3F1
:10A3B00052F8140C143200EA060110B1B1F1805FBA
:10A3C00018D052F80C1C0CF1010C0029E5D1227BAD
:10A3D00082B1B8F1000F0DD0BCF1010F6FD8BEF102
:10A3E000070F6CD80CEB8C018900226A11440A7BA0
:10A3F000002A64D0226A92684FF00008002A53D0E5
:10A40000B8F1000F02D098F80C2022B1BA6812B14E
:10A41000116892884A83226AD2F800E0226A516861
:10A42000226A9268501E9AB1BEF1000F23D01EF826
:10A4300001CB1A899207FCD5A3F80CC01A89D20760
:10A44000FCD59A8992B209B101F8012B0138EBD2FF
:10A45000236A1B7BE3B9236A1B697BB1236AD7F8A4
:10A4600094001B69984701280DD0022806D10023CB
:10A470002362BDE8F0814FF0FF0CDAE7D4F82080CA
:10A48000236A14332362236A9B686BB16368B7E75E
:10A49000BB68002BDFD01A689B881383DBE742F090
:10A4A00003026AE7420843E7236A1B68DBB1236AB9
:10A4B000D3E9007222620022C3E9002219E70021D9
:10A4C0003846FFF75BFEBB6813B11A689B8853835D
:10A4D0003846BDE8F0418BE6227B002A8AD0B8F1ED
:10A4E000000F82D186E72362C3E700BF0038004037
:10A4F0000000FFFF003C004038B5D0F8E0102B4BC7
:10A5000004465A68D0F8D80071B1131A99420BDC8E
:10A5100094F8D030C4F8D820012B10D0D4F8D4301F
:10A520000133C4F8D43038BDD4F8E430C4F8D820AE
:10A530000344C4F8DC3094F8D030012BEED16168CC
:10A54000201D04F1E805EFF3118C102383F312882A
:10A5500063681B6A0BB3D4F8F0302A461BB1D36989
:10A560001432002BFBD10B6A6BB1996839B9934255
:10A5700009D0196829B15B6899680029F7D01433AC
:10A58000F3E7C3E900055FFA8CFC8CF31188D4F87B
:10A59000D4300133C4F8D43038BD0D625FFA8CFC7E
:10A5A0008CF31188FFF7A0FEB8E700BF001000E0B1
:10A5B00070B585692B691A78022A94B002D0002000
:10A5C00014B070BD1A6A002AF9D1CDE908220592AB
:10A5D0008DF81C200D921092129295F84C2162F089
:10A5E0007F028DF807200DF107029FED2B7B04926F
:10A5F000012206928DF830208DF8442002AA0A929A
:10A60000062204468DED0E7B05F110000B92EFF350
:10A61000118C102282F312882A69126AB2B1069A4A
:10A6200004AE002A34D03246D16914320029FBD15D
:10A630001B6A43B3996839B99A4224D0196801B3A7
:10A640005B6899680029F7D01433F3E704AA5FFA2E
:10A650008CFC1A628CF31188FFF746FE2A69136A94
:10A66000002BFCD1BDF80810BDF80A20BDF80C3055
:10A6700049BA52BA5BBA0120E1812282638214B0E6
:10A6800070BDC3E900065FFA8CFC8CF31188E5E726
:10A690003246CDE7AFF3008000000000000000006C
:10A6A00003691A78022A01D0002070471A6A002A2A
:10A6B000FAD130B59FED347B95B090F84DC18DF84F
:10A6C0001C200121CDE905210446CDE908220DF128
:10A6D00007006CF07F0C8DF830108DF844100D924F
:10A6E0001092129202A906220490CDE90A128DED71
:10A6F0000E7B04F110008DF807C0EFF3118C1022CF
:10A7000082F312882269126AB2B1069A04AD002A55
:10A7100037D02A46D16914320029FBD11B6A5BB3BA
:10A72000996839B99A4227D0196819B35B68996852
:10A730000029F7D01433F3E704AA1A625FFA8CFCFD
:10A740008CF31188FFF7D0FD2269136A002BFCD12E
:10A75000BDF80810BDF80A20BDF80C3049BA52BA4D
:10A760005BBA0120A4F8D010A4F8D220A4F8D43009
:10A7700015B030BDC3E900055FFA8CFC8CF311887D
:10A78000E2E72A46CAE700BF000000000000000020
:10A790002DE9F041826992F8DC30012B8AB0054640
:10A7A0004CD0023B012B54D892F84C31D2F89C206B
:10A7B0002E4C63F07F0313708669D6F8A030D6F86C
:10A7C000108003F1010E0FCCEC46ACE80F00D6F878
:10A7D0009C30CDE9003E0FCCACE80F0094E80300BC
:10A7E00006F110078CE80300EFF31180102383F3C8
:10A7F000128833691B6A002B2FD0029B6A461BB15B
:10A80000D3691432002BFBD1D8F8203073B199688A
:10A8100039B993420AD0196829B15B68996800294F
:10A82000F7D01433F3E71F60C3F804D0C0B280F34D
:10A830001188AA6911690B6A002BFCD1D2F8A030EB
:10A840005A8852BAEA819A8852BA2A82DB885BBA5D
:10A850006B8201200AB0BDE8F081C8F820D0C0B2F8
:10A8600080F311883846FFF73FFDE2E79853070869
:10A870002DE9F04190F8DC30D0F8A050012B8AB0DF
:10A88000044672D016D8D0F89C304FF0FF321A60D0
:10A890005A609A60DA60D0F8E0300522B3F57A7F2A
:10A8A000C0F8F0207CD8032380F8DC3001200AB007
:10A8B000BDE8F081023B012BF8D890F84D31D0F87B
:10A8C0009C20524E63F07F031370D0F8A030D0F874
:10A8D000108003F1010E00F110070FCEEC46ACE83A
:10A8E0000F00D4F89C30CDE9003E0FCEACE80F004D
:10A8F00096E803008CE80300EFF31180102383F344
:10A90000128823691B6A002B73D0029B6A461BB115
:10A91000D3691432002BFBD1D8F8203073B1996879
:10A9200039B993420AD0196829B15B68996800293E
:10A93000F7D01433F3E71F60C3F804D0C0B280F33C
:10A9400011882269136A002BFCD16B885BBAA4F8CA
:10A95000D030AB885BBAA4F8D230EB8801205BBA68
:10A96000A4F8D4300AB0BDE8F08190F84C2190F8FA
:10A970004D319B1A5B100133DBB205EB430235F816
:10A9800013305BBAA0F8D03053885BBAA0F8D2304D
:10A9900093885BBAA0F8D43001200AB0BDE8F081FA
:10A9A00003691A7B72B35B6963B390F898304BB359
:10A9B00090F84C31D0F89C20C4F8A40063F07F03D9
:10A9C000137090F84C1190F84D31D0F8A020104839
:10A9D000C4F804015B1A07330121C4F8FC30D4F831
:10A9E0009C3084F800110A44C4E93D3284F8DC103C
:10A9F0005CE7C8F820D0C0B280F311883846FFF772
:10AA000073FC9EE7022384F8DC304FE79853070875
:10AA10000180000870B5924C94F8D93A012B92B09D
:10AA200000F0F980022B00F0EB80002B00F0948006
:10AA30008C4DD4F8DC1A95F806325B064CBF4FF407
:10AA4000F0734FF4C37302AEA5F80832012385F802
:10AA50000A328DF814308DF828300023CDE9063302
:10AA6000CDE9083303930B937F4BC4F8743B03F198
:10AA70000213C4F8783B03F10213C4F87C3B03F1E2
:10AA80000213C4F8803B03F10213C4F8843B03F1C2
:10AA90000213C4F8883B03F10213C4F88C3B03F1A2
:10AAA00002137248C4F8903B202302900493EFF302
:10AAB000118C102383F31288D4F8DC3A1B6A002B24
:10AAC00000F0BA80049B32461BB1D3691432002BCC
:10AAD000FBD10B6A73B1996839B99A420AD01968E7
:10AAE00029B15B6899680029F7D01433F3E7604A0D
:10AAF0005E601A605FFA8CFC8CF31188D4F8DC3A43
:10AB0000196A0029FCD195F8062259480FF0E4FF94
:10AB100094F8942B564802210FF0DEFF94F8952B01
:10AB2000534803210FF0D8FF94F8963B93B1012BC3
:10AB30007BD0032B14BFC722F7224D4801210FF011
:10AB4000CBFFB5F808224B48002112B0BDE8704099
:10AB50006AF06BBB4722F0E70DF10601A0200291DD
:10AB60000DF1070101228DF8060008910020002157
:10AB7000CDE90C01CDE90332CDE90633D4F8DC1A76
:10AB80008DF8143009928DF828200B930E938DF8D0
:10AB90003C201093EFF31180102383F31288D4F834
:10ABA000DC3A1B6A002B50D0049B02AE32461BB12C
:10ABB000D3691432002BFBD10B6A73B1996839B990
:10ABC0009A420AD0196829B15B6899680029F7D0C0
:10ABD0001433F3E7264AC3E90026C0B280F3118894
:10ABE000D4F8DC1A0B6A002BFCD19DF8073003F077
:10ABF0000602022A1BD01B4D482385F8063211E0BD
:10AC0000184DD4F8DC1A082385F806320DEB03063C
:10AC10004FF4C37318E7134DD4F8DC1A482385F8B2
:10AC2000063202AE4FF4F0730EE7872285E70D4D32
:10AC3000082385F80632EBE70E625FFA8CFC8CF392
:10AC400011889838FFF750FB58E702AE0E62C0B289
:10AC500080F3118804F6DC20FFF746FBC0E700BF55
:10AC6000C01E00208801002010011101342A00209C
:10AC70009C290020582A002010B1036882881A837A
:10AC8000704700BF10B1036882885A83704700BFC5
:10AC900008B51D2010F02EFB08B183794BB11E20A2
:10ACA00010F028FB08B1837903B108BD5523C38098
:10ACB00008BD5523C380F2E7D3B2012B23D870B56A
:10ACC00002EB4202114C4FEA820E4FF0000C22467A
:10ACD0000EF10805634604E00133152B11D012F87C
:10ACE0001CCF6045F8D192F801C08C45F4D156597B
:10ACF000002EF1D0C3EBC3030EEB83030433E01843
:10AD000070BD002070BD0020704700BFC053070811
:10AD100010B40C4C002304F6785C01E0152B0CD029
:10AD200003EB430201331CF802108142F6D12244A6
:10AD30005DF8044B92F97A0D70474FF0FF305DF8E3
:10AD4000044B7047C01E0020D3B2022B21D830B56F
:10AD500002EB4202104D114C4FEA820C0CF10C0E2A
:10AD60002A46002304E00133172B10D052F82C4F51
:10AD7000A042F8D114798C42F5D152F80E40002C43
:10AD8000F1D02C2202FB03C30833E81830BD0020A9
:10AD900030BD0020704700BF0C560708000001407E
:10ADA000002838D030B51C4D90F804C0002305F6BB
:10ADB000785401E0152B2CD003EB43020133A15C46
:10ADC0006145F7D12A44046892F97A3D90F805E08C
:10ADD000DAB2022A1DD803EB4303104810494FEAA8
:10ADE000830C02460CF10C05002304E00133172B01
:10ADF0000FD052F82C1F8C42F8D111797145F5D142
:10AE000051590029F2D02C2202FB03C30833184405
:10AE100030BD002030BD7047C01E00200C56070812
:10AE2000000001400348D0F81C3213B100F5037054
:10AE300018477047880100200348D0F8403213B10A
:10AE400000F50C7018477047880100200348D0F8BF
:10AE5000643213B100F5157018477047880100205F
:10AE60000348D0F8883213B100F51E7018477047B8
:10AE7000880100200348D0F8AC3213B100F52770E8
:10AE800018477047880100200348D0F8D03213B12A
:10AE900000F5307018477047880100200348D0F84B
:10AEA000F43213B100F5397018477047880100205B
:10AEB0000348D0F8183313B100F5427018477047B3
:10AEC000880100200348D0F83C3313B100F54B70E3
:10AED00018477047880100200348D0F8603313B149
:10AEE00000F5547018477047880100200348D0F8D7
:10AEF000843313B100F55D70184770478801002056
:10AF00000348D0F8A83313B100F5667018477047AE
:10AF1000880100200348D0F8CC3313B100F56F70DE
:10AF200018477047880100200348D0F8F03313B168
:10AF300000F5787018477047880100200348D0F862
:10AF4000143413B100F20440184770478801002000
:10AF50000348D0F8383413B100F5856018477047BE
:10AF600088010020094B0A4A013800EBC00003EBBE
:10AF70008000116BD0F80C32064883420CBF4FF4AE
:10AF800000134FF480030B431363704788010020C4
:10AF9000003802400060024070B501383C4C3D4D25
:10AFA00000EBC00C04EB8C0C9646DCF80C623A4AC1
:10AFB000AE420CBF4FF400154FF48005166B3543BD
:10AFC0001563CCF81C12CCF824323449DCF810326A
:10AFD0008B424FEAC0023ED001F580618B423AD0ED
:10AFE000A1F57A718B4247D001F580618B4243D045
:10AFF000A1F57A718B4241D001F580618B423DD041
:10B00000A1F57A718B4235D001F580618B4231D048
:10B01000A1F57A718B4233D001F580618B422FD03C
:10B02000A1F57A718B422DD001F580618B4229D038
:10B03000A1F57A718B4227D001F580618B4223D034
:10B04000A1F57A718B4221D0154D01F580618B42BB
:10B0500018BF002500E0134D104404EB8003CEF32D
:10B060008711C3F82C5293F82102BDE870400022EA
:10B0700063F042B80C4DEFE70C4DEDE70C4DEBE7FC
:10B080000C4DE9E70C4DE7E70C4DE5E7044DE3E730
:10B090008801002000600240003802401060024039
:10B0A0000080002820800010008000180088001018
:10B0B00000802010208000200088002000802020B8
:10B0C000094910B54B6C094C43F480434B64402252
:10B0D000002104F517606AF0A8F84FF0FF33C4F8B8
:10B0E000B83DC4F8BB3D10BD00380240C01E002072
:10B0F0000120FDF7D1BE00BF0220FDF7CDBE00BF8D
:10B100000420FDF7C9BE00BF0820FDF7C5BE00BF83
:10B110001020FDF7C1BE00BF4FF47870FDF7BCBE34
:10B120004FF47C40FDF7B8BE30B1036882881B69DC
:10B130001A4214BF01200020704700BF30B50C46F2
:10B1400083B0054618B3036803F13F4303F57E035C
:10B150009B0A104A134493F80C0763F0F7FCA98884
:10B16000009104F00303C4F381028DF804302868D1
:10B170008DF80520C4F300136946C4F341148DF81B
:10B1800006308DF8074058F0D1FB03B030BD4FF0CA
:10B19000FF33DEE7F452070800B1CFE7704700BF86
:10B1A0002DE9F04302691778012F85B004460D465A
:10B1B00018D10B79013B13714B79002B08BF682321
:10B1C00000F1100803754FF000093B460DF1050230
:10B1D000752140468DF805900FF0D4FA06460028F8
:10B1E0003ED1226902231370EB7823B90026304642
:10B1F00005B0BDE8F08304F11008A97840460FF0CF
:10B20000FDFD06460028F1D0E87810F073F8A06143
:10B210002B780133DBB210B1C37122238371092172
:10B22000FFF7BAFFA069FFF727FD424AD2F81839A5
:10B23000632BFBD94048DFF80891404F0FF0B4FD75
:10B24000A08202E059F8047F5FB34046B847034646
:10B250000028F7D0206984F8D83066F021FDC6E7D1
:10B26000206966F01DFD3B4649460DF10602404649
:10B270000FF088FA9DF8063003F07E038DF8063053
:10B2800008B1682B14D09DF8053003F07E03682BBD
:10B290008DF805300FD0702BA9D1042384F8D83055
:10B2A000A5E7E87810F026F810F084F83E469EE70F
:10B2B00084F8D8709BE70222062384F8D820194628
:10B2C00002AA40460FF05EFAE0B19DF80D309DF8FD
:10B2D0000B209B00520002F0020203F00403134310
:10B2E0009DF8092002F0010213430BD0012B1DD061
:10B2F000022B17D003F00303032B13D0032016F007
:10B300005FFB74E701230DF1070240460C210FF0AB
:10B3100039FA0028F2D09DF8073013F00F03EDD072
:10B32000042B03D0012384F8D93060E7002384F88C
:10B33000D9305CE7C01E002040420F003DD8050810
:10B34000085A07080B4B10B5D3F8D43A0344044607
:10B35000987D0FF0CFFF60B12E228271621CC27106
:10B360000121FFF719FF20460021BDE81040FEF73C
:10B37000AEBD10BDC01E00202DE9F8439DF8208011
:10B3800000287AD004468088B0FA80F0202815463C
:10B39000C0F11F0271D0DFF804913C4E09EB0207A7
:10B3A00006EB820297F83877C2F870194FF0004226
:10B3B000C24005D03649086820EA020008604A61A8
:10B3C00019462046FFF7BAFEA2882368B2FA82F433
:10B3D000C4F11F0101F0FC0202F1804202F59C322F
:10B3E00003F13F4303F57E0301F00301D2F808C0E7
:10B3F0008900C3F387234FF00F0E8B400EFA01F143
:10B400002CEA0101916091680B439360204B4FF04F
:10B4100000421968E24021EA0201196059681D4C96
:10B4200021EA02015960D4F8001C1143C4F8001C41
:10B43000996809EB880821EA02019960D96898F8AF
:10B44000480721EA02011028D96018D000F1804095
:10B4500000F59E3003681A4302603E4496F8B83DFA
:10B46000AB420ADD0C4B86F8B85DD85DC5F3871199
:10B470000022BDE8F84362F03FBEBDE8F88399685A
:10B4800011439960D9680A43DA60E6E7C01E0020DC
:10B49000003C014000300140E8E60708F45207088C
:10B4A0002DE9F843044690F8210144F23B33A4F817
:10B4B0004C3108B9BDE8F8830509013D032D00F0C2
:10B4C0000F0000F29B804F4F07EB4503B3F8542762
:10B4D00042FA00F3DB0740F19180012303FA00F008
:10B4E000013810403D4468F067F8474E95F85C8796
:10B4F000464A804406F55C6909EBC8052621AB88FD
:10B50000E980B3FA83F3202BE260C3F11F02D1D0AC
:10B51000174406EB82020C34C2F870494FF0004227
:10B5200032FA03F397F8384705D0394A116821EA0F
:10B5300003011160536100212846FFF7FFFDAB882E
:10B5400059F83820B3FA83F3C3F11F0000F0FC016F
:10B5500001F1804101F59C3102F13F4202F57E028A
:10B5600000F003008F688000C2F387224FF00F0CB9
:10B5700082400CFA00F027EA0000886088680243E5
:10B580008A60234A234910684FF0004727FA03F3E3
:10B5900020EA03001060506820EA03005060D1F8F0
:10B5A000000C1843C1F8000C906820EA030090607A
:10B5B000D06820EA0300D060D1F8082C26441A4352
:10B5C000C1F8082C96F8B82DF02A08D8002B3FF4C3
:10B5D00071AF0F490A6813430B60BDE8F883F0238D
:10B5E00086F8B83D0C4B0022185D032162F084FD03
:10B5F000AB88B3FA83F327FA03F3E7E7034BE3607F
:10B6000058E700BFF4520708C01E0020F9A4000844
:10B61000003C014000300140E8E6070838B500F181
:10B6200010050446FFF73CFF03226B2128460FF06C
:10B6300053FA0F2015F0E2FD10226A2128460FF080
:10B640004BFA0F2015F0DAFD00226C2128460FF08E
:10B6500043FA0F2015F0D2FD94F820211921284635
:10B660000FF03AFA0F2015F0C9FD18221B212846C9
:10B670000FF032FA0F2015F0C1FD18221C212846C8
:10B680000FF02AFA0F2015F0B9FD102237212846B5
:10B690000FF022FA0F2015F0B1FD012238212846C3
:10B6A0000FF01AFA0F2015F0A9FD2046FEF7FCFB5B
:10B6B0001A21024628460FF00FFA012015F09EFDD0
:10B6C0000A480FF071FBA0822046FEF7E9FF94F9CB
:10B6D000D230013308D194F9D030013304D1BDE820
:10B6E0003840062016F06CB938BD00BF002D31017E
:10B6F0002DE9F743054600F1100479480FF054FB9B
:10B70000A8822846FFF7CCFE42F21F53A5F84C3121
:10B710000022762120460FF0DFF900224E2120463C
:10B720000FF0DAF995F8D8906E4BB9F10C0F93F849
:10B73000C13F40F0AD80012B00F0BA80022B15BF55
:10B74000062603264FF4DC774FF4786714BF4FF0DA
:10B7500015084FF03F080122762120460FF0BCF972
:10B7600042460C2120460FF0B7F907F0FC020D21EC
:10B7700020460FF0B1F9320142EA17220E2120468D
:10B780000FF0AAF9B9F10C0F14BF4FF006084FF0F3
:10B7900015084FF002024FF07601204615BF24270E
:10B7A0004FF4DC770A2606260FF096F94FEA480296
:10B7B000032120460FF090F907F0BC020421204637
:10B7C0000FF08AF9320142EA1722052120460FF0D4
:10B7D00083F90022762120460FF07EF9FF225221C4
:10B7E00020460FF079F90322142120460FF074F956
:10B7F0000022632120460FF06FF9082265212046C0
:10B800000FF06AF9E42120460FF020FA00F0EF0073
:10B8100040F06002642120460FF05EF9CD21204601
:10B820000FF014FA00F03F0040F040024D21204696
:10B830000FF052F90F224E2120460FF04DF9012052
:10B8400015F01EFF95F8DB30002B43D095F8203122
:10B85000013343F00103B3FA83F3C3F11F03032B56
:10B8600038DC214AD25C02F00F024F2120460192BF
:10B870000FF032F90F2015F003FF2046019A5021F6
:10B880000FF02AF90F2003B0BDE8F04315F0F8BE21
:10B89000022B13D0032B17D0012B15BF0A26082625
:10B8A0002427902714BF4FF006084FF00C0852E7EA
:10B8B00004264FF4C0674FF027084CE706264FF4E4
:10B8C000DC774FF0150846E704264FF4AC674FF0DD
:10B8D000250840E7002385F8DB300622C3E700BFD8
:10B8E00000366E01C01E0020D0E60708F8B5037DC3
:10B8F00085691F2B04464DD90168A3F120024E68CB
:10B9000020209040064234D010239340C860CB6082
:10B910004B68D340DE0700F18380EFF311835022A0
:10B9200082F312882A6C1168C9075AD4516889B207
:10B9300071B9D5E90960864250D0AF690744D76034
:10B9400073D9301A80B25060AE62002185F864105D
:10B95000116841F00101DBB2116083F3118895F8A1
:10B960006430002B44D1237D1F2B27D92168A3F1FC
:10B9700020024C6808209040044200D0C8604C6807
:10B98000042000FA02F2224203D0203B00FA03F323
:10B99000CB60F8BD02682020166898400642194620
:10B9A0000ED010219940906091601168D940C8076D
:10B9B000B3D5012101FA03F39360AEE7226819467B
:10B9C000106808238B40184200D09360106804234D
:10B9D00003FA01F10142DCD09160F8BD012285F843
:10B9E0006420DBB283F3118895F86430002BBAD061
:10B9F00095F87C30002BB6D195F871000FF07AFCE9
:10BA00002A6E938923F008031B0401211B0C9381E8
:10BA100085F87C100028A6D02021FFF78FFBA2E735
:10BA2000012303FA02F2CA6077E72E69301A80B266
:10BA30005060A96289E700BF70B50C4682B0154618
:10BA40000646002839D0036803F13F4303F57E031F
:10BA50009B0A1B4A134493F80C0763F077F8B288EB
:10BA60000092B2FA82F304F003028DF80420C4F3CA
:10BA7000810230688DF80520C3F11F03C4F3001262
:10BA8000C4F341148DF80740C3F3CC0400EB8404E5
:10BA900003F007038DF806209B00226A0F269D40C5
:10BAA00006FA03F322EA03032362226A1543694676
:10BAB000256257F03BFF02B070BD4FF0FF33C8E77F
:10BAC000F452070800B1B7E7704700BF2DE9F04313
:10BAD000774D05EB001683B0D6F8E43F002B00F05D
:10BAE000938004464FEA001896F8EC0F63F02EF8A6
:10BAF00096F8EC3F590903F01F0203294FF00103A8
:10BB000003FA02F300F09880042900F085800229EE
:10BB10007DD005EB0803013493F8E80F0FF0EAFB42
:10BB2000E4B2814610B112238371C47105EB08039E
:10BB300093F8E90F0FF0DEFB074610B11323C47131
:10BB4000837105EB080393F8EA0F0FF0D3FB064669
:10BB500010B11423C47183714544484695F8EB2F06
:10BB600001924A21FFF7AEFF019A38462A21FFF7DA
:10BB7000A9FF019A0A213046FFF7A4FFD5F8E42F68
:10BB80004C4B9A425DD04C4B9A424AD04B4B9A4216
:10BB900062D04B4B9A426AD04A4B9A4272D04A4B7F
:10BBA0009A427AD049499088B1F84E44B1F84C3461
:10BBB000B1F856542343B1F850442343B1F85244EA
:10BBC00020F003002343B1F854440004000C234345
:10BBD000B1F8584490802B4310882343B1F85A445D
:10BBE000B1F85C1400F44150234303439BB213802B
:10BBF000938B23F400631B041B0C93831182138823
:10BC00009BB243F04003138003B0BDE8F083304A99
:10BC1000516A0B4353627CE72D4A11690B43136150
:10BC200077E703F50033196A41F480411962196A14
:10BC300021F480411962B5E7254A116A0B4313626A
:10BC400067E703F58433596A41F480515962596AB0
:10BC500021F480515962A5E703F5FE33196A41F4D6
:10BC600000411962196A21F4004119629AE703F54B
:10BC70008233596A41F400515962596A21F40051E2
:10BC800059628FE703F56843596A41F4801159629C
:10BC9000596A21F48011596284E703F56443596AB3
:10BCA00041F400115962596A21F40011596279E78F
:10BCB000C01E00200030014000380040003C004021
:10BCC0000034014000500140005401408801002030
:10BCD00000380240F8B590F871301C09013C032C83
:10BCE0000FD81B4E06EB44020546B2F8540703F08A
:10BCF0000F0340FA03F2D20703D595F87C70012FA9
:10BD000001D00120F8BD07FA03F3013B1840344489
:10BD100067F052FC94F85C270E4C104454F8302025
:10BD200004EBC0041069A3881840EBD0EB6E00222E
:10BD300085F87C2093F8212020460221FFF77CFE25
:10BD40002A6E93899BB243F0080338469381F8BD6D
:10BD5000F4520708802C0020084B53E9392140F2A7
:10BD60002A40002350604B620B889BB243F00103D2
:10BD70000B80136843F0010313607047B82F002055
:10BD80000D4B984214D0A3F58063984210D003F570
:10BD9000804398420CD003F58063984208D003F5A5
:10BDA0008063984204D0054BD3F8F40740087047ED
:10BDB000024BD3F8F407704700040140C01E002076
:10BDC0001D4B1E48196C1E4A10B441F080510124CD
:10BDD000196404625321FF24CA20546250625162E4
:10BDE0005B6FDB0085B017D4164804230021029155
:10BDF0000290029A1A440292029A04331C2B116098
:10BE0000F5D103910390039B0393039B0E4A1A60A1
:10BE100005B05DF8044B70470A4B00220192019374
:10BE2000019B0193019A084B12689A42DCD105B03C
:10BE30005DF8044B704700BF0038024000000E421E
:10BE400000280040502800403166654230B5044665
:10BE5000006EA268838923F400531B041B0C8381AA
:10BE6000637995B013F0040F4FF00001019214BFF5
:10BE70004FF480520A46ADF808201A031B0203F45F
:10BE80008063ADF80C302379ADF80E1002F4005247
:10BE9000ADF80A20DA0744BF0422ADF80E209B0754
:10BEA000ADF8101005D5BDF80E3043F00803ADF81D
:10BEB0000E3001A957F0CEFF6279236ED50700F14D
:10BEC0008B8012F0080F9A8A48D092B242F0080292
:10BED0009A829A8992B242F400529A812279D007CA
:10BEE00032D5E06B002800F089800023E26D0893D2
:10BEF000CDE90C33CDE91033CDE912334FF4807521
:10BF00000A936369E1680E9506920793626C059245
:10BF10004FF480634FF480350B9309910F9557F0E0
:10BF20009DFD05A9E06B57F02FFEE26B216E1368B3
:10BF300043F0010313608B8A9BB243F040038B8272
:10BF4000536822799BB2636591070DD4226E938961
:10BF50009BB243F40053938115B030BD22F0080228
:10BF60001204120C9A82B4E7206C002852D0236984
:10BF7000A26D0993A36CCDE90532402300254FF44F
:10BF8000803108934FF480630B930F91CDE90C55EA
:10BF9000CDE91055CDE9125507950A950E9557F044
:10BFA0005DFD206C05A957F0EFFD236C226E5869EA
:10BFB00040F080005861186840F0160018605D601D
:10BFC000938A9BB243F0800302F10C0193820B68C9
:10BFD00043F040030B60BAE71E498B4224D0A1F521
:10BFE0004C418B421ED001F580618B421ED1022054
:10BFF0000121FDF76CFF6279236E62E74FF6DF7176
:10C000001980D96841F02001D960D96841F0100148
:10C01000D96099E7226ED36843F0800302F10C01E6
:10C02000D360D4E70120E3E70020E1E701F5806178
:10C030008B420AD001F580618B4208D001F5444162
:10C040008B427FF43EAF0520D2E70320D0E70420E7
:10C05000CEE700BF001001402DE9F84F4F4C04EB34
:10C060008004D4F81C41002C00F08180E56E002D86
:10C0700079D01F46EB6A6361AB6AA3616B8EE360A4
:10C080002B8E23616B682366454B2360454BA16073
:10C09000A3660646204690460FF0DCFC94F871003B
:10C0A0000FF028F9814695F8200094F870B0A24668
:10C0B00000284FD102213B0784F87C1037D418F0B8
:10C0C000020F11D0B9F1000F0ED00B2389F8063002
:10C0D0003A0606F1010389F807304AD495F8212081
:10C0E00048462221FFF7A8FC18F0010F04D1E26BAB
:10C0F0009AB15046BDE8F88F58460FF0FBF800287B
:10C10000F5D00C220136C671827195F821202221CA
:10C11000FFF792FCE26B002AEBD195F8241095F81A
:10C120002200890961F0E8FF5046BDE8F88F01362A
:10C13000F6B2B9F1000FDAD00B23780689F8076060
:10C1400089F8063009D595F8212042214846FFF7A5
:10C1500073FCCCE762F0FAFCACE7FB0695F8212013
:10C16000F4D41221F2E7AA465046BDE8F88FA24661
:10C17000BFE794F871000FF0BDF8226E938923F0A9
:10C1800008031B0401211B0C938184F87C100028F8
:10C19000AAD02021FEF7D2FFA6E700BF04000010BE
:10C1A000545A0708D5BC0008BFF34F8F0549064B0A
:10C1B000CA6802F4E0621343CB60BFF34F8F00BF45
:10C1C000FDE700BF00ED00E00400FA0508B572B617
:10C1D000FFF7EAFF00B583B00D49002200920091FD
:10C1E000009B0C330093009B1B68012B02D003B013
:10C1F0005DF804FB01920191019B06490C33019308
:10C20000019B1A600B6883F308884B689847FEE728
:10C21000502800400000FF1F38B5FFF7D1FDFFF7A1
:10C22000D9FF012057F042FD6F4A936823F00303C2
:10C230009360936813F00C0FFBD113686A490028D0
:10C2400043D143F00103136041F288330A68950734
:10C250005CD4013BFAD1654C654D634B654AEA609D
:10C26000596F654A44F8C41CAA605A6B634C22F0AB
:10C2700080025A63586F624A40F080705867186BAA
:10C2800040F4CE001863596B5963996B9963196C2C
:10C2900021431964596C0A435A6410F09DF8594BB4
:10C2A000594AD3F8F437A2FB03239B09013BB3F1AE
:10C2B000807F09D24FF0E022F02053610021072354
:10C2C00085F823009161136138BD43F48033136016
:10C2D0000A68940341F2883304D4013BBBD00A6856
:10C2E0009403FAD5414C494A494BB0FBF3F3B0FBF8
:10C2F000F2F0B3EB400F18BF18464FF48002B3FBC7
:10C30000F0F344F8C82C44E9370307E0374C08221F
:10C31000022344E93723002144F8C81C022057F0C7
:10C32000C5FC03280FD83B4B54F8D81C03EBC000C6
:10C330008588C288438844F8D05CB3FBF1F344F8A5
:10C34000CC2C44F8D43C284B33491A6C42F0805230
:10C350001A640A6842F440420A609A689A609A68CD
:10C3600042F400429A609A6842F4A0529A6054F8EB
:10C37000C80C54F8DC2C54F8D41C024342EA811255
:10C3800054E93410490842EA0062013942EA0142A4
:10C390005A601A6842F080721A601A689201FCD5DD
:10C3A0001E4A40F205711160996821F003019960FD
:10C3B000996841F00201A2F580629960936803F0E8
:10C3C0000C03082BFAD154F8D80C1549D823B3FB29
:10C3D000F0F39B0143F000530120C2F884308866DB
:10C3E000FCF728F838E700BF00380240B82F0020DB
:10C3F00000ED00E00005FA0500000020FFC9FE3650
:10C40000335F0700C01E0020D34D621080841E00E1
:10C4100040420F00845A070800700040003C024070
:10C4200000004742800AA0F58010522806D8044B2D
:10C430001B5C0D2B02D8034AD05670470020704772
:10C44000F4520708D8E607080D4B0E49DB68DB43BA
:10C45000C3F30223C3F104030122DBB202FA03F3A4
:10C4600001EB000C1B0103F0F0038CF800334309CF
:10C4700000F01F0002FA00F041F82300704700BFEF
:10C4800000ED00E000E100E010B5EFF3118E502365
:10C4900083F3128803681BB384464CF8243F0433AB
:10C4A00000F1140252F8044B1CB11C6052F8043C19
:10C4B00004339445F6D100221A605FFA8EF383F3B9
:10C4C0001188436A2BB18B899BB243F001038B81A6
:10C4D00010BD8B8923F001031B041B0C8B8110BD45
:10C4E00000F1240C6346DBE770B50468A30AA3F5EA
:10C4F0008013522B2BD8164DEB5C0D2B27D890F8C0
:10C5000005E01448A68903EB830C03EB4C0C4FEABF
:10C510009E050CEB9E0C4FF0020E0EFA05FE00EB92
:10C520008C054EEA060EC5F89C2503EB83021FFA24
:10C530008EFE00F5B16003EB4203C5F88C1500EBED
:10C540008300A4F80CE02146BDE870409CE770BD74
:10C55000F4520708C01E002001490248FCF7BABC8B
:10C56000482400200000014010B5064C064804F5A0
:10C57000B161FCF7AFFC04F214710448BDE810404F
:10C58000FCF7A8BCC01E0020000001400044014090
:10C5900002494FF08040FCF79DBC00BF742400208E
:10C5A00001490248FCF796BCA0240020000400408A
:10C5B00001490248FCF78EBCCC2400200008004052
:10C5C00001490248FCF786BCF8240020000C00401A
:10C5D00001490248FCF77EBC7C2500200004014094
:10C5E00010B5064C064804F2BC61FCF773FC04F578
:10C5F000F3610448BDE81040FCF76CBCC01E00208D
:10C6000000040140001C004001490248FCF762BCE4
:10C61000A82500200040014001490248FCF75ABC0F
:10C62000002600200048014001490248FCF752BCA6
:10C630002C2600200018004001490248FCF74ABCA3
:10C640008426002000200040F8B5154D1548164FEF
:10C65000164C00214FF41A7268F0E7FD05F68806C3
:10C660004FF080413A46002301E054F833209142D4
:10C670000BD001330E2BF8D100201C3562F066FA86
:10C68000B5420CD055F81C1CECE7094A02EBC30379
:10C690001C3513F8BC0C62F059FAB542F2D1F8BD62
:10C6A000C05A070848240020000001402C630708F6
:10C6B000EC63070810B50C2937D8DFE801F097368E
:10C6C000363666363636373636360700038C5488AB
:10C6D000B2F80CE023F480531B041B0C0384038C7E
:10C6E000B0F804C0818B21F4E6414EEA040E09043F
:10C6F000148823F40053090C41EA04211B04754CEF
:10C700001B0C43EA0E33A0421FFA8CFC9BB289B289
:10C7100000F0AE8004F58064A04200F0A980926829
:10C72000A0F804C081830264038410BD038CB2F8B6
:10C730000CC0548823F480731B041B0C0384038CEB
:10C74000B0F804E0818B23F400731B044CEA040C62
:10C7500021F073011B0C43EA0C230904B2F800C05A
:10C76000090C41EA0C0C5B4988421FFA8EFE9BB211
:10C7700068D001F58061884264D09268A0F804E036
:10C78000A0F81CC0C263038410BD038CB2F80CC0B7
:10C79000548823F010031B041B0C0384038CB0F893
:10C7A00004E0018B23F020031B044CEA040C21F469
:10C7B000E6411B0C43EA0C130904B2F800C0090C53
:10C7C00041EA0C211FFA81FC424988421FFA8EFE81
:10C7D0009BB269D001F58061884265D09268A0F86B
:10C7E00004E0A0F818C08263038410BD038C548851
:10C7F000B2F80CE023F001031B041B0C0384038C30
:10C80000B0F804C0018B21F073014EEA040E090454
:10C81000148823F00203090C1B0421432D4C1B0C2C
:10C8200043EA0E03A0421FFA8CFC9BB228D004F509
:10C830008064A04224D09268A0F804C001834263BF
:10C84000038410BDD189548A23F4006343EA012193
:10C85000138A2EF4405E23434EEA031E94884FF65B
:10C86000FF330B4043EA04231FFA8EFE9BB284E79A
:10C87000148A2CF4804C4CEA841C1FFA8CFC4EE782
:10C88000D489B2F810E023F008032343548A2CF42F
:10C89000407C4EEA040E948823F004034CEA0E0C0C
:10C8A0001FFA8CFC2343C6E7D189548A23F0800306
:10C8B00043EA0111138A2EF4406E23434EEA830E9D
:10C8C00094884FF6BF730B4043EA04131FFA8EFEA1
:10C8D0009BB283E7000001400C2911D8DFE801F08A
:10C8E0002310101019101010111010100700838B56
:10C8F00023F400631B041B0C43EA022292B28283DE
:10C900007047838B23F008031B041B0C1A4382839C
:10C910007047038B23F400631B041B0C43EA0222C1
:10C9200092B202837047038B23F008031B041B0C95
:10C930001A430283704700BF2DE9F04FDFF870B251
:10C940009BF8104187B024B90124204607B0BDE808
:10C95000F08F934ED6F818590FF0B2FD9BF868315E
:10C960000390002B00F053828E4AA2FB05328E4BBF
:10C970005209A3FB0213DB0803EB8303A2EB43037F
:10C98000DAB204920BF5B87202EB830300930BF555
:10C990008A6306F1C40401934FF00009924635E022
:10C9A0003B680293009B5C330093019B3046143339
:10C9B000019357F053F87A4B02988C2202FB09330B
:10C9C000002583F8B85079792A46FFF785FF22467B
:10C9D0007979FFF76FFE79790822FFF77DFF402311
:10C9E00044F83C3CA4F14801304657F0CDF8336898
:10C9F00043F0100333609BF8683109F10109994550
:10CA00000AF15C0A04F18C0480F2D480DBF8143162
:10CA1000039AD31A04D454F8082C9342C0F2A88184
:10CA20005F4B54F8587C266A8C2202FB093393F83A
:10CA3000B830002BB4D03968736834F8542C0291A4
:10CA40001FFA83FE8B89CEF1160E9BB223EA0203F6
:10CA5000BEF1070F8B81A5D9DBF858340133CBF831
:10CA60005834A36A05939C4600225CF8045B0121BC
:10CA700090461BE0DCF80000B8F1140FA0EB0503B2
:10CA80001DDC13F1080548BF03F117052B1108EB56
:10CA900025180546581E013102FA03F3012282408F
:10CAA0008E4542EA03020CF1040C08D38E45E1D80E
:10CAB000C8F11503DCF800504FF01508EAE7B8F1AB
:10CAC000150F60D13948C2F38423C2F3441100EB3F
:10CAD000830300EB810153F8503C51F8501C1B02BA
:10CAE00043EA011302F01F0100EB8101C2F3C432DB
:10CAF00000EB820251F8501C52F8502C0B4343EAD1
:10CB0000023383EA132282EA121202F00F020F2A82
:10CB100039D1C3F30F134FF6FF72934233D0B3F5FD
:10CB2000606F00F03381019A93819AF85820049D38
:10CB3000AA4211D00098DAF800208168521ACAF887
:10CB40000020016BDAF80420521ACAF804200022EF
:10CB5000826002638AF85850DAF8002000990132A6
:10CB6000CAF800208A6801328A604FF6FF72934249
:10CB70007FF418AFDAF804300133CAF804300B6BD5
:10CB800001330B630EE7DBF854340133CBF8543434
:10CB9000B9F1000F00F0E2804FF6FF73C5E700BF68
:10CBA000C01E00201F85EB51CDCCCCCCEC63070818
:10CBB0000400001001228BF85425CBF81451002BEF
:10CBC0003FF4C2AE954890F87410890700F1BC801C
:10CBD000C16E086849798A40018C92B289B221EA13
:10CBE00002010184018C89B20A43012B02843FF4C3
:10CBF000ABAE8A4991F80021970700F1BE80D1F8C9
:10CC0000F82010685479018C012289B2A24092B2B6
:10CC100021EA02010184018C89B20A43022B0284B9
:10CC20003FF492AE7D4991F88C21960700F1BD80CA
:10CC3000D1F8842110685479018C012289B2A24074
:10CC400092B221EA02010184018C89B20A43032BCA
:10CC500002843FF479AE714991F81822950700F1EA
:10CC6000AD80D1F8102210685479018C012289B26C
:10CC7000A24092B221EA02010184018C89B20A43E6
:10CC8000042B02843FF460AE644991F8A422940717
:10CC900000F19D80D1F89C2210685479018C01220A
:10CCA00089B2A24092B221EA02010184018C89B2C8
:10CCB0000A43052B02843FF447AE584991F83023CC
:10CCC000900700F18D80D1F8282310685479018CE9
:10CCD000012289B2A24092B221EA02010184018CB0
:10CCE00089B20A43062B02843FF42EAE4B4991F8D9
:10CCF000BC2392077DD4D1F8B42310685479018CF9
:10CD0000012289B2A24092B221EA02010184018C7F
:10CD100089B20A43082B02847FF416AE3F4A92F888
:10CD200048349B076ED5D2F840240423116850790B
:10CD30000A8C83409BB292B222EA03020A840A8CD4
:10CD400092B213430B84FFE5344AD26E10685479D3
:10CD5000018C0422A24089B292B240E70599304882
:10CD6000582268F0FFF93B6802934FF6FF73DCE648
:10CD70000024204607B0BDE8F08F284AD2F8F820FA
:10CD800010685479018C042289B23FE723494A781C
:10CD900002EB420201EBC2024A44527C0D2A7FF4AC
:10CDA000C2AE019980228A77BFE61C4AD2F884215C
:10CDB00010685479018C042289B240E7174AD2F8EE
:10CDC000102210685479018C042289B250E7134A6A
:10CDD000D2F89C2210685479018C042289B260E751
:10CDE0000E4AD2F8282310685479018C042289B2A3
:10CDF00070E70A4AD2F8B42310685479018C0422EF
:10CE000089B27FE7054BD3F8402401238EE7012246
:10CE10008BF85425CBF8143197E500BFC01E0020D5
:10CE2000000500102DE9F04F002299B02F21074690
:10CE300015F044FC00B3BE4ED0F8008046F8E08CFC
:10CE40000446FDF7ADFF0246B0B1D0F804C046F885
:10CE5000E4CCBCF1000F0FD0B64D00232946486842
:10CE6000844501F1240103F101030FD0102BF6D109
:10CE7000B14B93F8040218B1002019B0BDE8F08F4F
:10CE80002F2283F8042283F80502F6E7DBB2DFF8ED
:10CE9000A892013B03EBC30309EB830393F828A299
:10CEA000BAF1000FE8D14FF02F0B38469768A3F87E
:10CEB00028B20EF01FFA034646F8BC0C28B1A3F8BE
:10CEC00006B0E2792A21FEF7B7FD9C4A9C4900236F
:10CED00001E051F83320904500F0238101330E2BFF
:10CEE000F7D1002061F032FE56F8E00C954A038835
:10CEF00023F001031B041B0C9042038000F06F81A0
:10CF00008E4B984217D003F58043984213D003F517
:10CF1000806398420FD003F5806398428A4BD3F820
:10CF2000F4170BD0894AB2EB510F4FEA510340F28C
:10CF3000508100220BE0844BD3F8F417834B9942C5
:10CF400080F014814FF0010C0022B1FBFCF3ADF82E
:10CF500004207F4A7F491B0AA2FB03231A09A1FB75
:10CF6000021252084FF000081B0926F8BE2C01A936
:10CF70005200029326F8C02CADF80C80ADF8068064
:10CF80008DF80E8061F0BEFFCDE90688CDF82080D7
:10CF9000A379ADF81480602204929A0740F1AE8024
:10CFA000DB0003F00803ADF81E300423ADF81430A5
:10CFB00056F8E00C617904AAFFF77CFB617908223E
:10CFC000FFF78AFCB0F8443056F8E48C6FEA43432C
:10CFD0006FEA53439BB2A0F8443003889BB243F0FE
:10CFE00080030380A3796179028C9B074CBF0423E3
:10CFF00001238B409BB292B222EA03020284028C8C
:10D0000092B21343038403889BB243F0010303806D
:10D010002A4600235168884502F1240203F10103E6
:10D020007CD0102BF6D14FF0FF3303EBC30309EB99
:10D030008309494AD9F80C3248498B420CBF4FF456
:10D0400000134FF48003116B0B43136300236A68D2
:10D05000904505F1240503F101035CD0102BF6D1B6
:10D060003F49602200235046FDF796FF404656F0A8
:10D07000F5FC56F8E40C036823F001030025036077
:10D0800056F0ECFCCDE91455CDE9165556F8E03CC8
:10D090000E951295627956F8E40C099734331344CF
:10D0A000304A0B9240220A930C924FF480434FF483
:10D0B0008052CDE9102340F22A414FF440330D91C4
:10D0C000139309A94FF480630F9356F05DFD6379C4
:10D0D00056F8E01C0C2B03D8234A02EB43031D8EA9
:10D0E0008B8956F8E42C9BB21D438D811368012077
:10D0F00043F01003136019B0BDE8F08F5B0003F03C
:10D100000203ADF81C300123ADF812304FF48073E8
:10D11000ADF820304CE75FFA83FAA1E7DBB2013BC0
:10D1200083E7114A02EBC30313F8BC0CDAE600BF35
:10D13000B82F002094030020880100200000014047
:10D140002C63070800040140C01E0020006CDC02B4
:10D15000598B4F01ABAAAAAA0038024000600240D6
:10D16000A98100085C830020EC630708264B9842E5
:10D170000BD003F58043984207D003F580639842B3
:10D1800003D003F58063984222D101F1B7731F4A9F
:10D1900003F55853A2FB03239B0D013B9AB21A4B94
:10D1A000984202F1010C3FF4D0AE03F5804398425F
:10D1B0003FF4CBAE03F5806398423FF4C6AE03F56F
:10D1C000806398423FF4C1AE4B08B3FBFCF3BEE66C
:10D1D0004B0803F1B7730D4A03F55853DAE70C4BCC
:10D1E000D3F8F4170B4B9942FFF4ACAE074A01F1A8
:10D1F000B77303F55853A2FB03239B0D013B9AB26F
:10D2000002F1010CA1E600BF00000140819F5E1603
:10D21000C01E0020006CDC02F0B50C4689B03C4911
:10D22000BDF838609DF83C70013B054620689BB214
:10D23000049388424FF00003ADF81430ADF80E307F
:10D240008DF8163013D0334B984210D003F580433D
:10D2500098420CD003F58063984208D003F58063B0
:10D26000984204D02C4BD3F8F4375B0802E02A4BE9
:10D27000D3F8F437B3FBF2F203A9013AADF80C206E
:10D2800061F040FE20686179A3790FB183F001035A
:10D290000022CDE90622ADF81020602203929A0701
:10D2A00029D5DB0003F00803ADF81A300423ADF8EC
:10D2B000103003AA01910596FFF7FCF901990822A5
:10D2C000FFF70AFB2268B2F844306FEA43436FEA83
:10D2D00053439BB2A2F84430138811469BB243F0EB
:10D2E000010321F8343B63796A60C8180022286082
:10D2F000CA5009B0F0BD5B0003F00203ADF818306E
:10D300000123ADF80E304FF48073ADF81C30D0E738
:10D310000004014000000140C01E00200E4A92F8A7
:10D32000F03703F0FF01002BF9D10C4B4FF0010C4B
:10D3300082F8F0C753F8B80CD3F8A42A33F8A43C09
:10D340004360516213889BB243EA0C031380036865
:10D3500043EA0C0303607047C01E0020B82F002072
:10D360001648174A174938B5174C184D121A67F066
:10D37000F9FED4F88820164B164842F47002C4F81F
:10D3800088201A68002142F001021A6099601A6828
:10D3900022F0847222F480321A6058601A6822F4F3
:10D3A00080221A600C4AD960521B28460B4967F04C
:10D3B000D9FEA560BDE83840FBF73CB8000000107E
:10D3C000040000102BA1080800ED00E00000002080
:10D3D00000380240103000248801002000000008BE
:10D3E000544BC1F1030193F80A2241EA8000C0B214
:10D3F000824200F0938070B54F4C83F80A021121ED
:10D4000084F8761B122184F8781B132184F87A1B88
:10D41000142184F87C1B152184F87E1B162184F8C6
:10D42000801B172184F8821B182184F8841B192182
:10D4300084F8861B1A2184F8881B1B2184F88A1B18
:10D440001C2184F88C1B1D2184F88E1B1E218AB0A0
:10D4500084F8901B10221F21002384F8750B84F898
:10D46000770B84F8790B84F87B0B84F87D0B84F8B8
:10D470007F0B84F8810B84F8830B84F8850B84F888
:10D48000870B84F8890B84F88B0B84F88D0B84F858
:10D490008F0B84F8910B04F6743584F8742B84F8A0
:10D4A000921B012184F8930B20200095CDE90130D7
:10D4B000CDE90433CDE90633D4F8DC5A8DF80C10ED
:10D4C0008DF820100993EFF3118082F31288D4F8BD
:10D4D000DC3A1B6A1BB3029B6E4632461BB1D36912
:10D4E0001432002BFBD12B6A73B1996839B99A4277
:10D4F0000AD0196829B15B6899680029F7D01433FC
:10D50000F3E70E4AC3E90026C0B280F31188D4F8CD
:10D51000DC2A136A002BFCD10AB070BD7047C5F835
:10D5200020D0C0B280F3118804F6DC20FCF7DCFECA
:10D53000EDE700BF88010020C01E00209C290020CC
:10D540000A4BB3F8081271B1094B0A4A01EB030CFC
:10D5500001E0634507D013F8010B12F8011B884264
:10D56000F7D0002070470120704700BF88010020DD
:10D57000603A0020582A00202DE9F043A04CA14D2C
:10D58000D4F8186993B028B9D5F8603403F57A73E4
:10D59000B3424AD200230122FF210DF107088DF882
:10D5A0000710CDE90332CDE90633CDE90833D4F8CD
:10D5B000DC1AC5F860648DF814208DF828200B93D0
:10D5C000CDF80880EFF31180102383F31288D4F88C
:10D5D000DC3A1B6A002B00F0BB80049B02AF3A468A
:10D5E0001BB1D3691432002BFBD10B6A43B399688A
:10D5F00039B9934224D01968F9B15B689968002958
:10D60000F7D01433F3E7804A5F601A60C0B280F34A
:10D610001188D4F8DC2A136A002BFCD19DF807305E
:10D6200095F806229A4240F08D8094F8D90A002895
:10D630004AD0002013B0BDE8F083734A5F601A60DF
:10D64000C0B280F31188D4F8DC1A0B6A002BFCD12D
:10D65000CDE9063303938DF814300B930E9310939A
:10D660000123049309938DF828308DF83C308023F2
:10D670008DF806300DF10603029300220023CDE958
:10D680000C23CDF82080EFF31180102383F3128850
:10D69000D4F8DC3A1B6A002B63D0049B3A461BB1DA
:10D6A000D3691432002BFBD10B6A002BAED09968E2
:10D6B00041B99342AAD019680029A4D05B6899683F
:10D6C0000029F6D01433F2E7DFF84091D9F8683E2C
:10D6D000F31AB3F57A7FADD9012304938DF8143092
:10D6E0008DF828300DF10708FF23CDE90600CDE9BC
:10D6F0000800D4F8DC2A03900B908DF80730CDF8A1
:10D700000880EFF3118C102383F31288D4F8DC3AED
:10D710001B6A002B00F0CF80049B02AF38461BB180
:10D72000C3691430002BFBD1136A2BB39A683AB942
:10D73000834221D01A68E2B15B689A68002AF7D068
:10D740001433F3E7FDF766F9012013B0BDE8F08369
:10D7500002AFC0B20F6280F311882B48FCF7C4FD02
:10D7600071E70F62C0B280F311882748FCF7BCFD57
:10D770004FE7254A5F601A605FFA8CFC8CF31188D2
:10D78000D4F8DC0A036A002BFCD1CDE906330393FD
:10D790008DF814300B930E93109301230493099387
:10D7A0008DF828308DF83C30A0238DF806300DF12F
:10D7B0000603029300220023CDE90C23CDF820803C
:10D7C000EFF3118C102383F31288D4F8DC3A1B6A30
:10D7D000002B7AD0049B3A461BB1D3691432002B3C
:10D7E000FBD1036ABBB1986838B99A4213D0186864
:10D7F00070B15B6898680028F7D01433F3E700BF76
:10D80000C01E0020880100209C290020B82F002085
:10D81000354A5F601A605FFA8CFC8CF31188D4F88B
:10D82000DC2A136A002BFCD199F86C2E9DF8073086
:10D83000172A0FD195F8062202F04002002AA9F813
:10D84000702E03F00702A9F8722E14BF10220D22C9
:10D85000A9F8762E590708D50023C9F8803E002084
:10D86000C9F8686E13B0BDE8F08303F00503012B1F
:10D870001CD0002BF3D195F806325B06EFD5D9F812
:10D88000803E5BB3D4F81829D31A642BE7D9FDF78F
:10D89000C1F899F86C3E172BE1D1B9F8843E0133F9
:10D8A0009BB2A9F8843EA9F8743ED8E795F80632F1
:10D8B0005A06E4D5D3E702AF5FFA8CFC17628CF30B
:10D8C00011880948FCF710FD5AE707625FFA8CFCE3
:10D8D0008CF311880448FCF707FDA0E7D4F8183949
:10D8E000C9F8803EBBE700BF9C2900202DE9F04F1E
:10D8F000DFF850B29BF8863E85B03BB1BBF8880E8E
:10D90000003818BF012005B0BDE8F08FDFF838A25D
:10D91000DAF8DC3A1A7B002A40F0C2801D6A0A223B
:10D920000821CDE90021002D40F0C9809BF8872E09
:10D93000804BDFF81882BBF8887EC2EB021203EB43
:10D94000421903F579730393B8F8083207EB5307CC
